{
  "_format": "hh-sol-artifact-1",
  "contractName": "PredictionMarket",
  "sourceName": "contracts/PredictionMarket.sol",
  "abi": [
    {
      "inputs": [],
      "stateMutability": "nonpayable",
      "type": "constructor"
    },
    {
      "anonymous": false,
      "inputs": [
        {
          "indexed": true,
          "internalType": "uint256",
          "name": "marketId",
          "type": "uint256"
        },
        {
          "indexed": false,
          "internalType": "string",
          "name": "question",
          "type": "string"
        },
        {
          "indexed": true,
          "internalType": "address",
          "name": "creator",
          "type": "address"
        },
        {
          "indexed": false,
          "internalType": "uint256",
          "name": "endTime",
          "type": "uint256"
        }
      ],
      "name": "MarketCreated",
      "type": "event"
    },
    {
      "anonymous": false,
      "inputs": [
        {
          "indexed": true,
          "internalType": "uint256",
          "name": "marketId",
          "type": "uint256"
        },
        {
          "indexed": false,
          "internalType": "bool",
          "name": "outcome",
          "type": "bool"
        }
      ],
      "name": "MarketResolved",
      "type": "event"
    },
    {
      "anonymous": false,
      "inputs": [
        {
          "indexed": true,
          "internalType": "uint256",
          "name": "marketId",
          "type": "uint256"
        },
        {
          "indexed": true,
          "internalType": "address",
          "name": "predictor",
          "type": "address"
        },
        {
          "indexed": false,
          "internalType": "bool",
          "name": "prediction",
          "type": "bool"
        },
        {
          "indexed": false,
          "internalType": "uint256",
          "name": "amount",
          "type": "uint256"
        }
      ],
      "name": "PredictionPlaced",
      "type": "event"
    },
    {
      "anonymous": false,
      "inputs": [
        {
          "indexed": true,
          "internalType": "uint256",
          "name": "marketId",
          "type": "uint256"
        },
        {
          "indexed": true,
          "internalType": "address",
          "name": "predictor",
          "type": "address"
        },
        {
          "indexed": false,
          "internalType": "uint256",
          "name": "amount",
          "type": "uint256"
        }
      ],
      "name": "RewardClaimed",
      "type": "event"
    },
    {
      "inputs": [],
      "name": "MIN_STAKE",
      "outputs": [
        {
          "internalType": "uint256",
          "name": "",
          "type": "uint256"
        }
      ],
      "stateMutability": "view",
      "type": "function"
    },
    {
      "inputs": [],
      "name": "PLATFORM_FEE",
      "outputs": [
        {
          "internalType": "uint256",
          "name": "",
          "type": "uint256"
        }
      ],
      "stateMutability": "view",
      "type": "function"
    },
    {
      "inputs": [
        {
          "internalType": "uint256",
          "name": "_marketId",
          "type": "uint256"
        }
      ],
      "name": "claimReward",
      "outputs": [],
      "stateMutability": "nonpayable",
      "type": "function"
    },
    {
      "inputs": [
        {
          "internalType": "string",
          "name": "_question",
          "type": "string"
        },
        {
          "internalType": "string",
          "name": "_description",
          "type": "string"
        },
        {
          "internalType": "uint256",
          "name": "_duration",
          "type": "uint256"
        },
        {
          "internalType": "string",
          "name": "_category",
          "type": "string"
        }
      ],
      "name": "createMarket",
      "outputs": [
        {
          "internalType": "uint256",
          "name": "",
          "type": "uint256"
        }
      ],
      "stateMutability": "nonpayable",
      "type": "function"
    },
    {
      "inputs": [
        {
          "internalType": "uint256",
          "name": "_marketId",
          "type": "uint256"
        }
      ],
      "name": "getMarket",
      "outputs": [
        {
          "components": [
            {
              "internalType": "uint256",
              "name": "id",
              "type": "uint256"
            },
            {
              "internalType": "string",
              "name": "question",
              "type": "string"
            },
            {
              "internalType": "string",
              "name": "description",
              "type": "string"
            },
            {
              "internalType": "uint256",
              "name": "endTime",
              "type": "uint256"
            },
            {
              "internalType": "uint256",
              "name": "totalYesStake",
              "type": "uint256"
            },
            {
              "internalType": "uint256",
              "name": "totalNoStake",
              "type": "uint256"
            },
            {
              "internalType": "bool",
              "name": "resolved",
              "type": "bool"
            },
            {
              "internalType": "bool",
              "name": "outcome",
              "type": "bool"
            },
            {
              "internalType": "address",
              "name": "creator",
              "type": "address"
            },
            {
              "internalType": "uint256",
              "name": "createdAt",
              "type": "uint256"
            },
            {
              "internalType": "string",
              "name": "category",
              "type": "string"
            }
          ],
          "internalType": "struct PredictionMarket.Market",
          "name": "",
          "type": "tuple"
        }
      ],
      "stateMutability": "view",
      "type": "function"
    },
    {
      "inputs": [
        {
          "internalType": "uint256",
          "name": "_marketId",
          "type": "uint256"
        }
      ],
      "name": "getMarketOdds",
      "outputs": [
        {
          "internalType": "uint256",
          "name": "yesOdds",
          "type": "uint256"
        },
        {
          "internalType": "uint256",
          "name": "noOdds",
          "type": "uint256"
        }
      ],
      "stateMutability": "view",
      "type": "function"
    },
    {
      "inputs": [
        {
          "internalType": "uint256",
          "name": "_marketId",
          "type": "uint256"
        }
      ],
      "name": "getMarketPredictions",
      "outputs": [
        {
          "components": [
            {
              "internalType": "uint256",
              "name": "marketId",
              "type": "uint256"
            },
            {
              "internalType": "address",
              "name": "predictor",
              "type": "address"
            },
            {
              "internalType": "bool",
              "name": "prediction",
              "type": "bool"
            },
            {
              "internalType": "uint256",
              "name": "amount",
              "type": "uint256"
            },
            {
              "internalType": "bool",
              "name": "claimed",
              "type": "bool"
            }
          ],
          "internalType": "struct PredictionMarket.Prediction[]",
          "name": "",
          "type": "tuple[]"
        }
      ],
      "stateMutability": "view",
      "type": "function"
    },
    {
      "inputs": [
        {
          "internalType": "address",
          "name": "_user",
          "type": "address"
        }
      ],
      "name": "getUserMarkets",
      "outputs": [
        {
          "internalType": "uint256[]",
          "name": "",
          "type": "uint256[]"
        }
      ],
      "stateMutability": "view",
      "type": "function"
    },
    {
      "inputs": [
        {
          "internalType": "address",
          "name": "_user",
          "type": "address"
        },
        {
          "internalType": "uint256",
          "name": "_marketId",
          "type": "uint256"
        }
      ],
      "name": "getUserPrediction",
      "outputs": [
        {
          "components": [
            {
              "internalType": "uint256",
              "name": "marketId",
              "type": "uint256"
            },
            {
              "internalType": "address",
              "name": "predictor",
              "type": "address"
            },
            {
              "internalType": "bool",
              "name": "prediction",
              "type": "bool"
            },
            {
              "internalType": "uint256",
              "name": "amount",
              "type": "uint256"
            },
            {
              "internalType": "bool",
              "name": "claimed",
              "type": "bool"
            }
          ],
          "internalType": "struct PredictionMarket.Prediction",
          "name": "",
          "type": "tuple"
        }
      ],
      "stateMutability": "view",
      "type": "function"
    },
    {
      "inputs": [],
      "name": "marketCount",
      "outputs": [
        {
          "internalType": "uint256",
          "name": "",
          "type": "uint256"
        }
      ],
      "stateMutability": "view",
      "type": "function"
    },
    {
      "inputs": [
        {
          "internalType": "uint256",
          "name": "",
          "type": "uint256"
        },
        {
          "internalType": "uint256",
          "name": "",
          "type": "uint256"
        }
      ],
      "name": "marketPredictions",
      "outputs": [
        {
          "internalType": "uint256",
          "name": "marketId",
          "type": "uint256"
        },
        {
          "internalType": "address",
          "name": "predictor",
          "type": "address"
        },
        {
          "internalType": "bool",
          "name": "prediction",
          "type": "bool"
        },
        {
          "internalType": "uint256",
          "name": "amount",
          "type": "uint256"
        },
        {
          "internalType": "bool",
          "name": "claimed",
          "type": "bool"
        }
      ],
      "stateMutability": "view",
      "type": "function"
    },
    {
      "inputs": [
        {
          "internalType": "uint256",
          "name": "",
          "type": "uint256"
        }
      ],
      "name": "markets",
      "outputs": [
        {
          "internalType": "uint256",
          "name": "id",
          "type": "uint256"
        },
        {
          "internalType": "string",
          "name": "question",
          "type": "string"
        },
        {
          "internalType": "string",
          "name": "description",
          "type": "string"
        },
        {
          "internalType": "uint256",
          "name": "endTime",
          "type": "uint256"
        },
        {
          "internalType": "uint256",
          "name": "totalYesStake",
          "type": "uint256"
        },
        {
          "internalType": "uint256",
          "name": "totalNoStake",
          "type": "uint256"
        },
        {
          "internalType": "bool",
          "name": "resolved",
          "type": "bool"
        },
        {
          "internalType": "bool",
          "name": "outcome",
          "type": "bool"
        },
        {
          "internalType": "address",
          "name": "creator",
          "type": "address"
        },
        {
          "internalType": "uint256",
          "name": "createdAt",
          "type": "uint256"
        },
        {
          "internalType": "string",
          "name": "category",
          "type": "string"
        }
      ],
      "stateMutability": "view",
      "type": "function"
    },
    {
      "inputs": [],
      "name": "owner",
      "outputs": [
        {
          "internalType": "address",
          "name": "",
          "type": "address"
        }
      ],
      "stateMutability": "view",
      "type": "function"
    },
    {
      "inputs": [
        {
          "internalType": "uint256",
          "name": "_marketId",
          "type": "uint256"
        },
        {
          "internalType": "bool",
          "name": "_prediction",
          "type": "bool"
        }
      ],
      "name": "placePrediction",
      "outputs": [],
      "stateMutability": "payable",
      "type": "function"
    },
    {
      "inputs": [],
      "name": "platformBalance",
      "outputs": [
        {
          "internalType": "uint256",
          "name": "",
          "type": "uint256"
        }
      ],
      "stateMutability": "view",
      "type": "function"
    },
    {
      "inputs": [
        {
          "internalType": "uint256",
          "name": "_marketId",
          "type": "uint256"
        },
        {
          "internalType": "bool",
          "name": "_outcome",
          "type": "bool"
        }
      ],
      "name": "resolveMarket",
      "outputs": [],
      "stateMutability": "nonpayable",
      "type": "function"
    },
    {
      "inputs": [
        {
          "internalType": "address",
          "name": "",
          "type": "address"
        },
        {
          "internalType": "uint256",
          "name": "",
          "type": "uint256"
        }
      ],
      "name": "userMarkets",
      "outputs": [
        {
          "internalType": "uint256",
          "name": "",
          "type": "uint256"
        }
      ],
      "stateMutability": "view",
      "type": "function"
    },
    {
      "inputs": [
        {
          "internalType": "address",
          "name": "",
          "type": "address"
        },
        {
          "internalType": "uint256",
          "name": "",
          "type": "uint256"
        }
      ],
      "name": "userPredictions",
      "outputs": [
        {
          "internalType": "uint256",
          "name": "marketId",
          "type": "uint256"
        },
        {
          "internalType": "address",
          "name": "predictor",
          "type": "address"
        },
        {
          "internalType": "bool",
          "name": "prediction",
          "type": "bool"
        },
        {
          "internalType": "uint256",
          "name": "amount",
          "type": "uint256"
        },
        {
          "internalType": "bool",
          "name": "claimed",
          "type": "bool"
        }
      ],
      "stateMutability": "view",
      "type": "function"
    },
    {
      "inputs": [],
      "name": "withdrawPlatformFees",
      "outputs": [],
      "stateMutability": "nonpayable",
      "type": "function"
    }
  ],
  "bytecode": "0x608060405234801561001057600080fd5b5033600560006101000a81548173ffffffffffffffffffffffffffffffffffffffff021916908373ffffffffffffffffffffffffffffffffffffffff16021790555061348e806100616000396000f3fe6080604052600436106101145760003560e01c8063ae169a50116100a0578063da4473d811610064578063da4473d8146103c7578063db0f871d14610404578063eb44fdd314610441578063ec9790821461047e578063f6c33179146104a957610114565b8063ae169a50146102f9578063b1283e7714610322578063c4c580d414610369578063cb1c2b5c14610385578063d0b7830b146103b057610114565b806362a5dbbc116100e757806362a5dbbc146101e85780636dffbcb7146102135780638da5cb5b14610254578063a24d68cd1461027f578063a739657d146102bc57610114565b806326e127521461011957806334fbc9a1146101575780633c86e61b1461018257806357bde446146101bf575b600080fd5b34801561012557600080fd5b50610140600480360381019061013b9190611ef9565b6104ea565b60405161014e929190611f35565b60405180910390f35b34801561016357600080fd5b5061016c610575565b6040516101799190611f5e565b60405180910390f35b34801561018e57600080fd5b506101a960048036038101906101a49190611ef9565b61057a565b6040516101b691906120fb565b60405180910390f35b3480156101cb57600080fd5b506101e660048036038101906101e19190612149565b61068c565b005b3480156101f457600080fd5b506101fd6108ec565b60405161020a9190611f5e565b60405180910390f35b34801561021f57600080fd5b5061023a60048036038101906102359190612189565b6108f2565b60405161024b9594939291906121e7565b60405180910390f35b34801561026057600080fd5b5061026961097f565b604051610276919061223a565b60405180910390f35b34801561028b57600080fd5b506102a660048036038101906102a1919061239b565b6109a5565b6040516102b39190611f5e565b60405180910390f35b3480156102c857600080fd5b506102e360048036038101906102de9190612482565b610c37565b6040516102f0919061252a565b60405180910390f35b34801561030557600080fd5b50610320600480360381019061031b9190611ef9565b610d42565b005b34801561032e57600080fd5b5061034960048036038101906103449190611ef9565b611151565b6040516103609b9a999897969594939291906125c4565b60405180910390f35b610383600480360381019061037e9190612149565b61137d565b005b34801561039157600080fd5b5061039a61188a565b6040516103a79190611f5e565b60405180910390f35b3480156103bc57600080fd5b506103c5611895565b005b3480156103d357600080fd5b506103ee60048036038101906103e99190612684565b611a06565b6040516103fb9190612760565b60405180910390f35b34801561041057600080fd5b5061042b60048036038101906104269190612482565b611a9d565b6040516104389190611f5e565b60405180910390f35b34801561044d57600080fd5b5061046860048036038101906104639190611ef9565b611ace565b60405161047591906128c9565b60405180910390f35b34801561048a57600080fd5b50610493611d6f565b6040516104a09190611f5e565b60405180910390f35b3480156104b557600080fd5b506104d060048036038101906104cb9190612482565b611d75565b6040516104e19594939291906121e7565b60405180910390f35b60008060008060008581526020019081526020016000209050600081600501548260040154610519919061291a565b90506000810361053157603280935093505050610570565b8060648360040154610543919061294e565b61054d91906129bf565b93508060648360050154610561919061294e565b61056b91906129bf565b925050505b915091565b600281565b606060016000838152602001908152602001600020805480602002602001604051908101604052809291908181526020016000905b8282101561068157838290600052602060002090600402016040518060a0016040529081600082015481526020016001820160009054906101000a900473ffffffffffffffffffffffffffffffffffffffff1673ffffffffffffffffffffffffffffffffffffffff1673ffffffffffffffffffffffffffffffffffffffff1681526020016001820160149054906101000a900460ff16151515158152602001600282015481526020016003820160009054906101000a900460ff161515151581525050815260200190600101906105af565b505050509050919050565b60008211801561069e57506004548211155b6106dd576040517f08c379a00000000000000000000000000000000000000000000000000000000081526004016106d490612a3c565b60405180910390fd5b600080600084815260200190815260200160002090508060060160029054906101000a900473ffffffffffffffffffffffffffffffffffffffff1673ffffffffffffffffffffffffffffffffffffffff163373ffffffffffffffffffffffffffffffffffffffff16148061079e5750600560009054906101000a900473ffffffffffffffffffffffffffffffffffffffff1673ffffffffffffffffffffffffffffffffffffffff163373ffffffffffffffffffffffffffffffffffffffff16145b6107dd576040517f08c379a00000000000000000000000000000000000000000000000000000000081526004016107d490612aa8565b60405180910390fd5b8060030154421015610824576040517f08c379a000000000000000000000000000000000000000000000000000000000815260040161081b90612b14565b60405180910390fd5b8060060160009054906101000a900460ff1615610876576040517f08c379a000000000000000000000000000000000000000000000000000000000815260040161086d90612b80565b60405180910390fd5b60018160060160006101000a81548160ff021916908315150217905550818160060160016101000a81548160ff021916908315150217905550827f4927fe38919783250023d27e65a3e56b6b5c3e49364e51674a41ef08d62460d9836040516108df9190612ba0565b60405180910390a2505050565b60065481565b6001602052816000526040600020818154811061090e57600080fd5b9060005260206000209060040201600091509150508060000154908060010160009054906101000a900473ffffffffffffffffffffffffffffffffffffffff16908060010160149054906101000a900460ff16908060020154908060030160009054906101000a900460ff16905085565b600560009054906101000a900473ffffffffffffffffffffffffffffffffffffffff1681565b60008083116109e9576040517f08c379a00000000000000000000000000000000000000000000000000000000081526004016109e090612c07565b60405180910390fd5b6000855111610a2d576040517f08c379a0000000000000000000000000000000000000000000000000000000008152600401610a2490612c73565b60405180910390fd5b60046000815480929190610a4090612c93565b919050555060008342610a53919061291a565b9050604051806101600160405280600454815260200187815260200186815260200182815260200160008152602001600081526020016000151581526020016000151581526020013373ffffffffffffffffffffffffffffffffffffffff168152602001428152602001848152506000806004548152602001908152602001600020600082015181600001556020820151816001019081610af49190612ee7565b506040820151816002019081610b0a9190612ee7565b50606082015181600301556080820151816004015560a0820151816005015560c08201518160060160006101000a81548160ff02191690831515021790555060e08201518160060160016101000a81548160ff0219169083151502179055506101008201518160060160026101000a81548173ffffffffffffffffffffffffffffffffffffffff021916908373ffffffffffffffffffffffffffffffffffffffff1602179055506101208201518160070155610140820151816008019081610bd29190612ee7565b509050503373ffffffffffffffffffffffffffffffffffffffff166004547f069da8c9710c1600001ae111f110050f586b7fcd73d420b5eb03747f67e86d0d8884604051610c21929190612fb9565b60405180910390a3600454915050949350505050565b610c3f611df2565b600360008473ffffffffffffffffffffffffffffffffffffffff1673ffffffffffffffffffffffffffffffffffffffff16815260200190815260200160002060008381526020019081526020016000206040518060a0016040529081600082015481526020016001820160009054906101000a900473ffffffffffffffffffffffffffffffffffffffff1673ffffffffffffffffffffffffffffffffffffffff1673ffffffffffffffffffffffffffffffffffffffff1681526020016001820160149054906101000a900460ff16151515158152602001600282015481526020016003820160009054906101000a900460ff161515151581525050905092915050565b600081118015610d5457506004548111155b610d93576040517f08c379a0000000000000000000000000000000000000000000000000000000008152600401610d8a90612a3c565b60405180910390fd5b600080600083815260200190815260200160002090508060060160009054906101000a900460ff16610dfa576040517f08c379a0000000000000000000000000000000000000000000000000000000008152600401610df190613035565b60405180910390fd5b6000600360003373ffffffffffffffffffffffffffffffffffffffff1673ffffffffffffffffffffffffffffffffffffffff168152602001908152602001600020600084815260200190815260200160002090506000816002015411610e95576040517f08c379a0000000000000000000000000000000000000000000000000000000008152600401610e8c906130a1565b60405180910390fd5b8060030160009054906101000a900460ff1615610ee7576040517f08c379a0000000000000000000000000000000000000000000000000000000008152600401610ede9061310d565b60405180910390fd5b8160060160019054906101000a900460ff1615158160010160149054906101000a900460ff16151514610f4f576040517f08c379a0000000000000000000000000000000000000000000000000000000008152600401610f4690613179565b60405180910390fd5b60008260060160019054906101000a900460ff16610f71578260050154610f77565b82600401545b905060008360060160019054906101000a900460ff16610f9b578360040154610fa1565b83600501545b905060008183610fb1919061291a565b905060006064600284610fc4919061294e565b610fce91906129bf565b905060008184610fde9190613199565b9050600085828860020154610ff3919061294e565b610ffd91906129bf565b90506000818860020154611011919061291a565b905060018860030160006101000a81548160ff0219169083151502179055508360066000828254611042919061291a565b9250508190555060003373ffffffffffffffffffffffffffffffffffffffff168260405161106f906131fe565b60006040518083038185875af1925050503d80600081146110ac576040519150601f19603f3d011682016040523d82523d6000602084013e6110b1565b606091505b50509050806110f5576040517f08c379a00000000000000000000000000000000000000000000000000000000081526004016110ec9061325f565b60405180910390fd5b3373ffffffffffffffffffffffffffffffffffffffff168b7f24b5efa61dd1cfc659205a97fb8ed868f3cb8c81922bab2b96423e5de1de2cb78460405161113c9190611f5e565b60405180910390a35050505050505050505050565b600060205280600052604060002060009150905080600001549080600101805461117a90612d0a565b80601f01602080910402602001604051908101604052809291908181526020018280546111a690612d0a565b80156111f35780601f106111c8576101008083540402835291602001916111f3565b820191906000526020600020905b8154815290600101906020018083116111d657829003601f168201915b50505050509080600201805461120890612d0a565b80601f016020809104026020016040519081016040528092919081815260200182805461123490612d0a565b80156112815780601f1061125657610100808354040283529160200191611281565b820191906000526020600020905b81548152906001019060200180831161126457829003601f168201915b5050505050908060030154908060040154908060050154908060060160009054906101000a900460ff16908060060160019054906101000a900460ff16908060060160029054906101000a900473ffffffffffffffffffffffffffffffffffffffff16908060070154908060080180546112fa90612d0a565b80601f016020809104026020016040519081016040528092919081815260200182805461132690612d0a565b80156113735780601f1061134857610100808354040283529160200191611373565b820191906000526020600020905b81548152906001019060200180831161135657829003601f168201915b505050505090508b565b60008211801561138f57506004548211155b6113ce576040517f08c379a00000000000000000000000000000000000000000000000000000000081526004016113c590612a3c565b60405180910390fd5b66038d7ea4c68000341015611418576040517f08c379a000000000000000000000000000000000000000000000000000000000815260040161140f906132cb565b60405180910390fd5b6000806000848152602001908152602001600020905080600301544210611474576040517f08c379a000000000000000000000000000000000000000000000000000000000815260040161146b90613337565b60405180910390fd5b8060060160009054906101000a900460ff16156114c6576040517f08c379a00000000000000000000000000000000000000000000000000000000081526004016114bd906133a3565b60405180910390fd5b6000600360003373ffffffffffffffffffffffffffffffffffffffff1673ffffffffffffffffffffffffffffffffffffffff16815260200190815260200160002060008581526020019081526020016000209050600081600201540361173357838160000181905550338160010160006101000a81548173ffffffffffffffffffffffffffffffffffffffff021916908373ffffffffffffffffffffffffffffffffffffffff160217905550828160010160146101000a81548160ff02191690831515021790555034816002018190555060008160030160006101000a81548160ff02191690831515021790555060016000858152602001908152602001600020819080600181540180825580915050600190039060005260206000209060040201600090919091909150600082015481600001556001820160009054906101000a900473ffffffffffffffffffffffffffffffffffffffff168160010160006101000a81548173ffffffffffffffffffffffffffffffffffffffff021916908373ffffffffffffffffffffffffffffffffffffffff1602179055506001820160149054906101000a900460ff168160010160146101000a81548160ff021916908315150217905550600282015481600201556003820160009054906101000a900460ff168160030160006101000a81548160ff0219169083151502179055505050600260003373ffffffffffffffffffffffffffffffffffffffff1673ffffffffffffffffffffffffffffffffffffffff1681526020019081526020016000208490806001815401808255809150506001900390600052602060002001600090919091909150556117f1565b8215158160010160149054906101000a900460ff1615150361176f5734816002016000828254611763919061291a565b925050819055506117f0565b8060010160149054906101000a900460ff16156117aa57806002015482600401600082825461179e9190613199565b925050819055506117ca565b80600201548260050160008282546117c29190613199565b925050819055505b828160010160146101000a81548160ff0219169083151502179055503481600201819055505b5b8215611817573482600401600082825461180b919061291a565b92505081905550611833565b3482600501600082825461182b919061291a565b925050819055505b3373ffffffffffffffffffffffffffffffffffffffff16847f7ae59d09350fd625b6d654adc6a6bfe53937659382863078ee717d266d549d41853460405161187c9291906133c3565b60405180910390a350505050565b66038d7ea4c6800081565b600560009054906101000a900473ffffffffffffffffffffffffffffffffffffffff1673ffffffffffffffffffffffffffffffffffffffff163373ffffffffffffffffffffffffffffffffffffffff1614611925576040517f08c379a000000000000000000000000000000000000000000000000000000000815260040161191c90613438565b60405180910390fd5b6000600654905060006006819055506000600560009054906101000a900473ffffffffffffffffffffffffffffffffffffffff1673ffffffffffffffffffffffffffffffffffffffff168260405161197c906131fe565b60006040518083038185875af1925050503d80600081146119b9576040519150601f19603f3d011682016040523d82523d6000602084013e6119be565b606091505b5050905080611a02576040517f08c379a00000000000000000000000000000000000000000000000000000000081526004016119f99061325f565b60405180910390fd5b5050565b6060600260008373ffffffffffffffffffffffffffffffffffffffff1673ffffffffffffffffffffffffffffffffffffffff168152602001908152602001600020805480602002602001604051908101604052809291908181526020018280548015611a9157602002820191906000526020600020905b815481526020019060010190808311611a7d575b50505050509050919050565b60026020528160005260406000208181548110611ab957600080fd5b90600052602060002001600091509150505481565b611ad6611e3b565b6000808381526020019081526020016000206040518061016001604052908160008201548152602001600182018054611b0e90612d0a565b80601f0160208091040260200160405190810160405280929190818152602001828054611b3a90612d0a565b8015611b875780601f10611b5c57610100808354040283529160200191611b87565b820191906000526020600020905b815481529060010190602001808311611b6a57829003601f168201915b50505050508152602001600282018054611ba090612d0a565b80601f0160208091040260200160405190810160405280929190818152602001828054611bcc90612d0a565b8015611c195780601f10611bee57610100808354040283529160200191611c19565b820191906000526020600020905b815481529060010190602001808311611bfc57829003601f168201915b505050505081526020016003820154815260200160048201548152602001600582015481526020016006820160009054906101000a900460ff161515151581526020016006820160019054906101000a900460ff161515151581526020016006820160029054906101000a900473ffffffffffffffffffffffffffffffffffffffff1673ffffffffffffffffffffffffffffffffffffffff1673ffffffffffffffffffffffffffffffffffffffff16815260200160078201548152602001600882018054611ce690612d0a565b80601f0160208091040260200160405190810160405280929190818152602001828054611d1290612d0a565b8015611d5f5780601f10611d3457610100808354040283529160200191611d5f565b820191906000526020600020905b815481529060010190602001808311611d4257829003601f168201915b5050505050815250509050919050565b60045481565b6003602052816000526040600020602052806000526040600020600091509150508060000154908060010160009054906101000a900473ffffffffffffffffffffffffffffffffffffffff16908060010160149054906101000a900460ff16908060020154908060030160009054906101000a900460ff16905085565b6040518060a0016040528060008152602001600073ffffffffffffffffffffffffffffffffffffffff168152602001600015158152602001600081526020016000151581525090565b604051806101600160405280600081526020016060815260200160608152602001600081526020016000815260200160008152602001600015158152602001600015158152602001600073ffffffffffffffffffffffffffffffffffffffff16815260200160008152602001606081525090565b6000604051905090565b600080fd5b600080fd5b6000819050919050565b611ed681611ec3565b8114611ee157600080fd5b50565b600081359050611ef381611ecd565b92915050565b600060208284031215611f0f57611f0e611eb9565b5b6000611f1d84828501611ee4565b91505092915050565b611f2f81611ec3565b82525050565b6000604082019050611f4a6000830185611f26565b611f576020830184611f26565b9392505050565b6000602082019050611f736000830184611f26565b92915050565b600081519050919050565b600082825260208201905092915050565b6000819050602082019050919050565b611fae81611ec3565b82525050565b600073ffffffffffffffffffffffffffffffffffffffff82169050919050565b6000611fdf82611fb4565b9050919050565b611fef81611fd4565b82525050565b60008115159050919050565b61200a81611ff5565b82525050565b60a0820160008201516120266000850182611fa5565b5060208201516120396020850182611fe6565b50604082015161204c6040850182612001565b50606082015161205f6060850182611fa5565b5060808201516120726080850182612001565b50505050565b60006120848383612010565b60a08301905092915050565b6000602082019050919050565b60006120a882611f79565b6120b28185611f84565b93506120bd83611f95565b8060005b838110156120ee5781516120d58882612078565b97506120e083612090565b9250506001810190506120c1565b5085935050505092915050565b60006020820190508181036000830152612115818461209d565b905092915050565b61212681611ff5565b811461213157600080fd5b50565b6000813590506121438161211d565b92915050565b600080604083850312156121605761215f611eb9565b5b600061216e85828601611ee4565b925050602061217f85828601612134565b9150509250929050565b600080604083850312156121a05761219f611eb9565b5b60006121ae85828601611ee4565b92505060206121bf85828601611ee4565b9150509250929050565b6121d281611fd4565b82525050565b6121e181611ff5565b82525050565b600060a0820190506121fc6000830188611f26565b61220960208301876121c9565b61221660408301866121d8565b6122236060830185611f26565b61223060808301846121d8565b9695505050505050565b600060208201905061224f60008301846121c9565b92915050565b600080fd5b600080fd5b6000601f19601f8301169050919050565b7f4e487b7100000000000000000000000000000000000000000000000000000000600052604160045260246000fd5b6122a88261225f565b810181811067ffffffffffffffff821117156122c7576122c6612270565b5b80604052505050565b60006122da611eaf565b90506122e6828261229f565b919050565b600067ffffffffffffffff82111561230657612305612270565b5b61230f8261225f565b9050602081019050919050565b82818337600083830152505050565b600061233e612339846122eb565b6122d0565b90508281526020810184848401111561235a5761235961225a565b5b61236584828561231c565b509392505050565b600082601f83011261238257612381612255565b5b813561239284826020860161232b565b91505092915050565b600080600080608085870312156123b5576123b4611eb9565b5b600085013567ffffffffffffffff8111156123d3576123d2611ebe565b5b6123df8782880161236d565b945050602085013567ffffffffffffffff811115612400576123ff611ebe565b5b61240c8782880161236d565b935050604061241d87828801611ee4565b925050606085013567ffffffffffffffff81111561243e5761243d611ebe565b5b61244a8782880161236d565b91505092959194509250565b61245f81611fd4565b811461246a57600080fd5b50565b60008135905061247c81612456565b92915050565b6000806040838503121561249957612498611eb9565b5b60006124a78582860161246d565b92505060206124b885828601611ee4565b9150509250929050565b60a0820160008201516124d86000850182611fa5565b5060208201516124eb6020850182611fe6565b5060408201516124fe6040850182612001565b5060608201516125116060850182611fa5565b5060808201516125246080850182612001565b50505050565b600060a08201905061253f60008301846124c2565b92915050565b600081519050919050565b600082825260208201905092915050565b60005b8381101561257f578082015181840152602081019050612564565b60008484015250505050565b600061259682612545565b6125a08185612550565b93506125b0818560208601612561565b6125b98161225f565b840191505092915050565b6000610160820190506125da600083018e611f26565b81810360208301526125ec818d61258b565b90508181036040830152612600818c61258b565b905061260f606083018b611f26565b61261c608083018a611f26565b61262960a0830189611f26565b61263660c08301886121d8565b61264360e08301876121d8565b6126516101008301866121c9565b61265f610120830185611f26565b818103610140830152612672818461258b565b90509c9b505050505050505050505050565b60006020828403121561269a57612699611eb9565b5b60006126a88482850161246d565b91505092915050565b600081519050919050565b600082825260208201905092915050565b6000819050602082019050919050565b60006126e98383611fa5565b60208301905092915050565b6000602082019050919050565b600061270d826126b1565b61271781856126bc565b9350612722836126cd565b8060005b8381101561275357815161273a88826126dd565b9750612745836126f5565b925050600181019050612726565b5085935050505092915050565b6000602082019050818103600083015261277a8184612702565b905092915050565b600082825260208201905092915050565b600061279e82612545565b6127a88185612782565b93506127b8818560208601612561565b6127c18161225f565b840191505092915050565b6000610160830160008301516127e56000860182611fa5565b50602083015184820360208601526127fd8282612793565b915050604083015184820360408601526128178282612793565b915050606083015161282c6060860182611fa5565b50608083015161283f6080860182611fa5565b5060a083015161285260a0860182611fa5565b5060c083015161286560c0860182612001565b5060e083015161287860e0860182612001565b5061010083015161288d610100860182611fe6565b506101208301516128a2610120860182611fa5565b506101408301518482036101408601526128bc8282612793565b9150508091505092915050565b600060208201905081810360008301526128e381846127cc565b905092915050565b7f4e487b7100000000000000000000000000000000000000000000000000000000600052601160045260246000fd5b600061292582611ec3565b915061293083611ec3565b9250828201905080821115612948576129476128eb565b5b92915050565b600061295982611ec3565b915061296483611ec3565b925082820261297281611ec3565b91508282048414831517612989576129886128eb565b5b5092915050565b7f4e487b7100000000000000000000000000000000000000000000000000000000600052601260045260246000fd5b60006129ca82611ec3565b91506129d583611ec3565b9250826129e5576129e4612990565b5b828204905092915050565b7f496e76616c6964206d61726b6574204944000000000000000000000000000000600082015250565b6000612a26601183612550565b9150612a31826129f0565b602082019050919050565b60006020820190508181036000830152612a5581612a19565b9050919050565b7f4e6f7420617574686f72697a6564000000000000000000000000000000000000600082015250565b6000612a92600e83612550565b9150612a9d82612a5c565b602082019050919050565b60006020820190508181036000830152612ac181612a85565b9050919050565b7f4d61726b6574206e6f7420656e64656420796574000000000000000000000000600082015250565b6000612afe601483612550565b9150612b0982612ac8565b602082019050919050565b60006020820190508181036000830152612b2d81612af1565b9050919050565b7f416c7265616479207265736f6c76656400000000000000000000000000000000600082015250565b6000612b6a601083612550565b9150612b7582612b34565b602082019050919050565b60006020820190508181036000830152612b9981612b5d565b9050919050565b6000602082019050612bb560008301846121d8565b92915050565b7f4475726174696f6e206d75737420626520706f73697469766500000000000000600082015250565b6000612bf1601983612550565b9150612bfc82612bbb565b602082019050919050565b60006020820190508181036000830152612c2081612be4565b9050919050565b7f5175657374696f6e2063616e6e6f7420626520656d7074790000000000000000600082015250565b6000612c5d601883612550565b9150612c6882612c27565b602082019050919050565b60006020820190508181036000830152612c8c81612c50565b9050919050565b6000612c9e82611ec3565b91507fffffffffffffffffffffffffffffffffffffffffffffffffffffffffffffffff8203612cd057612ccf6128eb565b5b600182019050919050565b7f4e487b7100000000000000000000000000000000000000000000000000000000600052602260045260246000fd5b60006002820490506001821680612d2257607f821691505b602082108103612d3557612d34612cdb565b5b50919050565b60008190508160005260206000209050919050565b60006020601f8301049050919050565b600082821b905092915050565b600060088302612d9d7fffffffffffffffffffffffffffffffffffffffffffffffffffffffffffffffff82612d60565b612da78683612d60565b95508019841693508086168417925050509392505050565b6000819050919050565b6000612de4612ddf612dda84611ec3565b612dbf565b611ec3565b9050919050565b6000819050919050565b612dfe83612dc9565b612e12612e0a82612deb565b848454612d6d565b825550505050565b600090565b612e27612e1a565b612e32818484612df5565b505050565b5b81811015612e5657612e4b600082612e1f565b600181019050612e38565b5050565b601f821115612e9b57612e6c81612d3b565b612e7584612d50565b81016020851015612e84578190505b612e98612e9085612d50565b830182612e37565b50505b505050565b600082821c905092915050565b6000612ebe60001984600802612ea0565b1980831691505092915050565b6000612ed78383612ead565b9150826002028217905092915050565b612ef082612545565b67ffffffffffffffff811115612f0957612f08612270565b5b612f138254612d0a565b612f1e828285612e5a565b600060209050601f831160018114612f515760008415612f3f578287015190505b612f498582612ecb565b865550612fb1565b601f198416612f5f86612d3b565b60005b82811015612f8757848901518255600182019150602085019450602081019050612f62565b86831015612fa45784890151612fa0601f891682612ead565b8355505b6001600288020188555050505b505050505050565b60006040820190508181036000830152612fd3818561258b565b9050612fe26020830184611f26565b9392505050565b7f4d61726b6574206e6f74207265736f6c76656400000000000000000000000000600082015250565b600061301f601383612550565b915061302a82612fe9565b602082019050919050565b6000602082019050818103600083015261304e81613012565b9050919050565b7f4e6f2070726564696374696f6e20666f756e6400000000000000000000000000600082015250565b600061308b601383612550565b915061309682613055565b602082019050919050565b600060208201905081810360008301526130ba8161307e565b9050919050565b7f416c726561647920636c61696d65640000000000000000000000000000000000600082015250565b60006130f7600f83612550565b9150613102826130c1565b602082019050919050565b60006020820190508181036000830152613126816130ea565b9050919050565b7f50726564696374696f6e207761732077726f6e67000000000000000000000000600082015250565b6000613163601483612550565b915061316e8261312d565b602082019050919050565b6000602082019050818103600083015261319281613156565b9050919050565b60006131a482611ec3565b91506131af83611ec3565b92508282039050818111156131c7576131c66128eb565b5b92915050565b600081905092915050565b50565b60006131e86000836131cd565b91506131f3826131d8565b600082019050919050565b6000613209826131db565b9150819050919050565b7f5472616e73666572206661696c65640000000000000000000000000000000000600082015250565b6000613249600f83612550565b915061325482613213565b602082019050919050565b600060208201905081810360008301526132788161323c565b9050919050565b7f5374616b6520746f6f206c6f7700000000000000000000000000000000000000600082015250565b60006132b5600d83612550565b91506132c08261327f565b602082019050919050565b600060208201905081810360008301526132e4816132a8565b9050919050565b7f4d61726b65742068617320656e64656400000000000000000000000000000000600082015250565b6000613321601083612550565b915061332c826132eb565b602082019050919050565b6000602082019050818103600083015261335081613314565b9050919050565b7f4d61726b657420616c7265616479207265736f6c766564000000000000000000600082015250565b600061338d601783612550565b915061339882613357565b602082019050919050565b600060208201905081810360008301526133bc81613380565b9050919050565b60006040820190506133d860008301856121d8565b6133e56020830184611f26565b9392505050565b7f4f6e6c79206f776e65722063616e2063616c6c20746869730000000000000000600082015250565b6000613422601883612550565b915061342d826133ec565b602082019050919050565b6000602082019050818103600083015261345181613415565b905091905056fea264697066735822122031d11fa7a1df656e3a3cd3d24068fcde8ff7300dafc96774618adbd86dfcdca664736f6c63430008140033",
  "linkReferences": {},
  "deployedLinkReferences": {}
}